{
  "_format": "hh-sol-artifact-1",
  "contractName": "Central",
  "sourceName": "contracts/Central.sol",
  "abi": [
    {
      "inputs": [
        {
          "internalType": "address",
          "name": "_ownerAddress",
          "type": "address"
        },
        {
          "internalType": "address",
          "name": "_contractAddress",
          "type": "address"
        },
        {
          "internalType": "uint256[]",
          "name": "_products",
          "type": "uint256[]"
        }
      ],
      "name": "addproduct",
      "outputs": [
        {
          "internalType": "string",
          "name": "",
          "type": "string"
        }
      ],
      "stateMutability": "nonpayable",
      "type": "function"
    },
    {
      "inputs": [
        {
          "internalType": "address",
          "name": "_contractAddress",
          "type": "address"
        },
        {
          "internalType": "uint256",
          "name": "_productHashCode",
          "type": "uint256"
        }
      ],
      "name": "checkProduct",
      "outputs": [
        {
          "internalType": "string",
          "name": "",
          "type": "string"
        }
      ],
      "stateMutability": "view",
      "type": "function"
    },
    {
      "inputs": [],
      "name": "createSmartContract",
      "outputs": [],
      "stateMutability": "nonpayable",
      "type": "function"
    },
    {
      "inputs": [
        {
          "internalType": "address",
          "name": "_walletAddress",
          "type": "address"
        }
      ],
      "name": "getCompanySmartContractAddress",
      "outputs": [
        {
          "internalType": "address",
          "name": "",
          "type": "address"
        }
      ],
      "stateMutability": "view",
      "type": "function"
    },
    {
      "inputs": [
        {
          "internalType": "address",
          "name": "_val",
          "type": "address"
        }
      ],
      "name": "retrieve",
      "outputs": [
        {
          "internalType": "address",
          "name": "",
          "type": "address"
        }
      ],
      "stateMutability": "pure",
      "type": "function"
    }
  ],
  "bytecode": "0x608060405234801561001057600080fd5b50611147806100206000396000f3fe608060405234801561001057600080fd5b50600436106100575760003560e01c80630a79309b1461005c57806325a0f0d01461008c5780633e0920f6146100bc5780634d581a37146100ec5780639b7ff3eb146100f6575b600080fd5b6100766004803603810190610071919061051f565b610126565b6040516100839190610708565b60405180910390f35b6100a660048036038101906100a1919061051f565b610130565b6040516100b39190610708565b60405180910390f35b6100d660048036038101906100d19190610548565b610199565b6040516100e39190610753565b60405180910390f35b6100f4610236565b005b610110600480360381019061010b91906105af565b610352565b60405161011d9190610753565b60405180910390f35b6000819050919050565b6000600160008373ffffffffffffffffffffffffffffffffffffffff1673ffffffffffffffffffffffffffffffffffffffff16815260200190815260200160002060009054906101000a900473ffffffffffffffffffffffffffffffffffffffff169050919050565b60608273ffffffffffffffffffffffffffffffffffffffff166320bf63ac85846040518363ffffffff1660e01b81526004016101d6929190610723565b600060405180830381600087803b1580156101f057600080fd5b505af1158015610204573d6000803e3d6000fd5b505050506040513d6000823e3d601f19601f8201168201806040525081019061022d91906105eb565b90509392505050565b600033604051610245906103ea565b61024f9190610708565b604051809103906000f08015801561026b573d6000803e3d6000fd5b5090506000819080600181540180825580915050600190039060005260206000200160009091909190916101000a81548173ffffffffffffffffffffffffffffffffffffffff021916908373ffffffffffffffffffffffffffffffffffffffff16021790555080600160003373ffffffffffffffffffffffffffffffffffffffff1673ffffffffffffffffffffffffffffffffffffffff16815260200190815260200160002060006101000a81548173ffffffffffffffffffffffffffffffffffffffff021916908373ffffffffffffffffffffffffffffffffffffffff16021790555050565b60608273ffffffffffffffffffffffffffffffffffffffff1663524e8462836040518263ffffffff1660e01b815260040161038d9190610775565b60006040518083038186803b1580156103a557600080fd5b505afa1580156103b9573d6000803e3d6000fd5b505050506040513d6000823e3d601f19601f820116820180604052508101906103e291906105eb565b905092915050565b61079c8061097683390190565b600061040a610405846107b5565b610790565b9050808382526020820190508285602086028201111561042957600080fd5b60005b85811015610459578161043f888261050a565b84526020840193506020830192505060018101905061042c565b5050509392505050565b6000610476610471846107e1565b610790565b90508281526020810184848401111561048e57600080fd5b6104998482856108a3565b509392505050565b6000813590506104b081610947565b92915050565b600082601f8301126104c757600080fd5b81356104d78482602086016103f7565b91505092915050565b600082601f8301126104f157600080fd5b8151610501848260208601610463565b91505092915050565b6000813590506105198161095e565b92915050565b60006020828403121561053157600080fd5b600061053f848285016104a1565b91505092915050565b60008060006060848603121561055d57600080fd5b600061056b868287016104a1565b935050602061057c868287016104a1565b925050604084013567ffffffffffffffff81111561059957600080fd5b6105a5868287016104b6565b9150509250925092565b600080604083850312156105c257600080fd5b60006105d0858286016104a1565b92505060206105e18582860161050a565b9150509250929050565b6000602082840312156105fd57600080fd5b600082015167ffffffffffffffff81111561061757600080fd5b610623848285016104e0565b91505092915050565b600061063883836106ea565b60208301905092915050565b61064d81610867565b82525050565b600061065e82610822565b6106688185610845565b935061067383610812565b8060005b838110156106a457815161068b888261062c565b975061069683610838565b925050600181019050610677565b5085935050505092915050565b60006106bc8261082d565b6106c68185610856565b93506106d68185602086016108a3565b6106df81610936565b840191505092915050565b6106f381610899565b82525050565b61070281610899565b82525050565b600060208201905061071d6000830184610644565b92915050565b60006040820190506107386000830185610644565b818103602083015261074a8184610653565b90509392505050565b6000602082019050818103600083015261076d81846106b1565b905092915050565b600060208201905061078a60008301846106f9565b92915050565b600061079a6107ab565b90506107a682826108d6565b919050565b6000604051905090565b600067ffffffffffffffff8211156107d0576107cf610907565b5b602082029050602081019050919050565b600067ffffffffffffffff8211156107fc576107fb610907565b5b61080582610936565b9050602081019050919050565b6000819050602082019050919050565b600081519050919050565b600081519050919050565b6000602082019050919050565b600082825260208201905092915050565b600082825260208201905092915050565b600061087282610879565b9050919050565b600073ffffffffffffffffffffffffffffffffffffffff82169050919050565b6000819050919050565b60005b838110156108c15780820151818401526020810190506108a6565b838111156108d0576000848401525b50505050565b6108df82610936565b810181811067ffffffffffffffff821117156108fe576108fd610907565b5b80604052505050565b7f4e487b7100000000000000000000000000000000000000000000000000000000600052604160045260246000fd5b6000601f19601f8301169050919050565b61095081610867565b811461095b57600080fd5b50565b61096781610899565b811461097257600080fd5b5056fe608060405234801561001057600080fd5b5060405161079c38038061079c8339818101604052810190610032919061008e565b80600260006101000a81548173ffffffffffffffffffffffffffffffffffffffff021916908373ffffffffffffffffffffffffffffffffffffffff16021790555050610100565b600081519050610088816100e9565b92915050565b6000602082840312156100a057600080fd5b60006100ae84828501610079565b91505092915050565b60006100c2826100c9565b9050919050565b600073ffffffffffffffffffffffffffffffffffffffff82169050919050565b6100f2816100b7565b81146100fd57600080fd5b50565b61068d8061010f6000396000f3fe608060405234801561001057600080fd5b50600436106100365760003560e01c806320bf63ac1461003b578063524e84621461006b575b600080fd5b6100556004803603810190610050919061038c565b61009b565b6040516100629190610442565b60405180910390f35b610085600480360381019061008091906103e0565b610229565b6040516100929190610442565b60405180910390f35b6060600260009054906101000a900473ffffffffffffffffffffffffffffffffffffffff1673ffffffffffffffffffffffffffffffffffffffff168373ffffffffffffffffffffffffffffffffffffffff16146100f757600080fd5b60005b82518110156101ea57600083828151811061013e577f4e487b7100000000000000000000000000000000000000000000000000000000600052603260045260246000fd5b6020026020010151908060018154018082558091505060019003906000526020600020016000909190919091505560018060008584815181106101aa577f4e487b7100000000000000000000000000000000000000000000000000000000600052603260045260246000fd5b6020026020010151815260200190815260200160002060006101000a81548160ff02191690831515021790555080806101e290610571565b9150506100fa565b6040518060400160405280600e81526020017f50726f647563747320616464656400000000000000000000000000000000000081525091505092915050565b60606001600083815260200190815260200160002060009054906101000a900460ff161561028e576040518060400160405280600d81526020017f41757468656e746963617465640000000000000000000000000000000000000081525090506102c7565b6040518060400160405280600b81526020017f436f756e7465726665697400000000000000000000000000000000000000000081525090505b919050565b60006102df6102da84610489565b610464565b905080838252602082019050828560208602820111156102fe57600080fd5b60005b8581101561032e57816103148882610377565b845260208401935060208301925050600181019050610301565b5050509392505050565b60008135905061034781610629565b92915050565b600082601f83011261035e57600080fd5b813561036e8482602086016102cc565b91505092915050565b60008135905061038681610640565b92915050565b6000806040838503121561039f57600080fd5b60006103ad85828601610338565b925050602083013567ffffffffffffffff8111156103ca57600080fd5b6103d68582860161034d565b9150509250929050565b6000602082840312156103f257600080fd5b600061040084828501610377565b91505092915050565b6000610414826104b5565b61041e81856104c0565b935061042e81856020860161050d565b61043781610618565b840191505092915050565b6000602082019050818103600083015261045c8184610409565b905092915050565b600061046e61047f565b905061047a8282610540565b919050565b6000604051905090565b600067ffffffffffffffff8211156104a4576104a36105e9565b5b602082029050602081019050919050565b600081519050919050565b600082825260208201905092915050565b60006104dc826104e3565b9050919050565b600073ffffffffffffffffffffffffffffffffffffffff82169050919050565b6000819050919050565b60005b8381101561052b578082015181840152602081019050610510565b8381111561053a576000848401525b50505050565b61054982610618565b810181811067ffffffffffffffff82111715610568576105676105e9565b5b80604052505050565b600061057c82610503565b91507fffffffffffffffffffffffffffffffffffffffffffffffffffffffffffffffff8214156105af576105ae6105ba565b5b600182019050919050565b7f4e487b7100000000000000000000000000000000000000000000000000000000600052601160045260246000fd5b7f4e487b7100000000000000000000000000000000000000000000000000000000600052604160045260246000fd5b6000601f19601f8301169050919050565b610632816104d1565b811461063d57600080fd5b50565b61064981610503565b811461065457600080fd5b5056fea26469706673582212208d1dc293e7a274f9b73348f808bf929920f997d57ea993922f60379f39d3b2e864736f6c63430008040033a264697066735822122032beed1b2e83cb668eac4cf4fbd8893992ede0ac73fa7fbd2a249e271b65dcae64736f6c63430008040033",
  "linkReferences": {},
  "deployedLinkReferences": {}
}